:020000040800F2
:10000000E0070020010100088F200008BB1F000846
:100010008D20000891080008B324000800000000AB
:10002000000000000000000000000000B3200008F5
:10003000590C000800000000B1200008B52000089D
:100040001B0100081B0100081B0100081B01000820
:100050001B0100081B0100081B0100081B01000810
:100060001B0100081B0100081B010008B10B000860
:100070001B0100081B0100081B0100081B010008F0
:100080001B0100081B0100081B0100081B010008E0
:100090001B0100081B0100081B0100081B010008D0
:1000A0001B0100081B0100081B0100081B010008C0
:1000B0001B0100081B0100081B0100081B010008B0
:1000C0001B0100081B0100081B0100081B010008A0
:1000D0001B010008812400081B0100081B01000807
:1000E0001B0100081B0100081B010008DFF80CD0F1
:1000F00000F048F90048004735260008E0070020D6
:100100000648804706480047FEE7FEE7FEE7FEE7B1
:10011000FEE7FEE7FEE7FEE7FEE7FEE73D2100081B
:10012000ED000008D2B201E000F8012B491EFBD21D
:1001300070470022F6E710B513460A4604461946F2
:10014000FFF7F0FF204610BD10B5044604E00B7821
:1001500000F8013B03B1491C521EF8D2204610BDE5
:1001600010B5002200E0521C835C8C5CA34201D1DC
:10017000002BF8D1D8B2E1B2401A10BD0FB400B5CF
:100180008DB010A909900B9000914FF0FF300A90AC
:1001900000200C9005480690054807906A4609A87B
:1001A0000F9900F0C1F80DB05DF814FB450300088D
:1001B000630300082DE9FF5F1D464FF0FF3BD5E9C3
:1001C000014691465F464FF00008A9697F1C0198DF
:1001D0008847296A824688470028F6D1BAF1FF3F4E
:1001E0000CD024F4C064002E19DD600614D5BAF1D9
:1001F0002B0F09D0BAF12D0F0ED103E0584604B0F1
:10020000BDE8F09F44F48064A9697F1C0198884789
:10021000761E8246002E02DDBAF1300F03D0B9F10E
:10022000000F26D032E0A969761E44F400747F1CCA
:10023000019888478246002E05DDBAF1780F06D076
:10024000BAF1580F03D0B9F1000F10D01EE0B9F188
:10025000000F02D0B9F1100F18D1A969761E24F44D
:1002600000747F1C019888478246102002E0082015
:1002700000E00A20814609E008FB0908A969761E0A
:1002800044F400747F1C019888478246002E05DDE7
:100290004946504600F034F80028EDDAE969019843
:1002A0008847A00502D46FF00100A8E7E00725D138
:1002B000600613D5600502D5C8F1000000E0404695
:1002C00029680A1D2A600968220501D5087015E011
:1002D000220701D5088011E008600FE02868011DA1
:1002E00029600068210502D580F8008006E021071A
:1002F00002D5A0F8008001E0C0F8008038467EE713
:100300003A2800D2303820F02002412A01D3A2F14D
:100310003700884201D34FF0FF3070470268114424
:100320001378016018467047D1600449516104494F
:10033000116200211161114600F03CB81D03000854
:10034000A9030008426842B1016811F8013B23B1DA
:10035000521EC0E90012184670470121C160881E74
:10036000704742685AB1C368016843B983688B42D9
:1003700005D0491E521CC0E90012002070474FF002
:10038000FF307047064C074D06E0E06840F001037F
:1003900094E8070098471034AC42F6D3FFF7AAFE62
:1003A000282C0008482C0008C0B24FF4F05100F08F
:1003B00097B900002DE9F34F8BB04FF0000801F121
:1003C0000C000C464FF0010B46460DF1080A019057
:1003D0006269012101989047051E2DD0252D2CD052
:1003E000216A8847C0B16269012101989047216A5A
:1003F00088470028F7D1411E62690198904700E0C4
:10040000761CA1690B988847216A88470028F7D194
:10041000E1690B988847DBE7A1690B988847074695
:10042000A84201D1761CD3E7E1690B9888477F1C6D
:1004300002D1B8F1000F6FD046E1002762693D4656
:100440003946019890472A2804D162690121019810
:1004500090470125DFF88492626901210198904755
:10046000A0F130010A290AD24F45E5DC07EB8701EC
:1004700000EB4107303FDFD445F01005ECE7E9061B
:1004800001D46FF000476C280AD04C2814D068289B
:1004900015D06A280DD074281CD07A281AD01DE0F7
:1004A00062690121019890476C2802D045F004054B
:1004B00014E045F002050DE045F020050AE0626910
:1004C000012101989047682802D045F0080505E011
:1004D00045F400656269012101989047C4E901571C
:1004E00065283DD019DC58287AD00CDC452837D057
:1004F00004DC252826D0412831D131E046282FD0F0
:1005000047282CD12CE05B2877D0612828D063289D
:100510007CD0642823D15AE0D0E06F2848D008DC92
:1005200066281DD067281BD0692821D06E2816D1D7
:1005300027E0702845D0732868D0752847D07828E0
:100540000DD14DE0A1690B988847054625283FF459
:1005500069AFE1690B9888476D1C3FF46AAFB3E05F
:1005600023466A466FF001000B99AFF300809EE0CE
:1005700045F040006060A80723464FF0000236D4E3
:100580003EE0E8077FF447AF2068011D2160006866
:10059000290501D506701BE7290701D5068017E755
:1005A000A90703D5F117C0E9006111E706600FE75D
:1005B00045F040006060A80723464FF0080216D4BB
:1005C0001EE040F60E0125EA0100606016E045F0ED
:1005D00040006060A80723464FF00A0207D40FE0EE
:1005E00045F040006060A80708D5234610226FF050
:1005F00001000B99AFF3008059E007E02346102279
:100600006FF001000B99FFF7D5FD50E04FF00009A6
:100610004F464B46632802D05B2806D040E0E806F0
:1006200001D40120A06001273AE06269012101980C
:1006300090475E2805D14FF001096269494601984B
:100640009047216939B900210A46534643F82120D1
:10065000491C0829FADBB0B3216969B9C11700EB5D
:10066000D16253110AEB830122F01F02821A01208A
:100670000B68904003430B60626901210198904729
:100680005D28E8D1B9F1000F09D00020514651F89A
:100690002020D24341F82020401C0828F7DB02AB81
:1006A000224600976FF001000B99AFF300800028FD
:1006B0000CDA401C08D1BBF1000F05D04FF0FF3021
:1006C0000DB0BDE8F08FFFE74046F9E7E90701D13B
:1006D00008F1010806444FF0000B79E6CCCCCC0CB5
:1006E0007F2801D9002208E0064A02EB5002C00729
:1006F000127800D1120902F00F0201209040084048
:1007000070470000E82B000870B58C1810F8015BEA
:1007100015F0070301D110F8013B2A1106D110F89A
:10072000012B03E010F8016B01F8016B5B1EF9D19E
:100730002B0705D40023521E0DD401F8013BFAE724
:1007400010F8013BCB1A921C03E013F8015B01F88F
:10075000015B521EF9D5A142D8D3002070BD000024
:1007600070B5044600688168C943C9071CD1816817
:1007700021F00101816000F0E9FE05460FE000BFB5
:1007800000F0E4FE401B022809D9A06A40F01000E6
:10079000A062E06A40F00100E062012070BD2068C4
:1007A0008068C043C007EBD0002070BD10B5014683
:1007B000406A826A12F0500F05D0006A026BBDE8F1
:1007C000104008461047816A41F400718162016857
:1007D0008968C1F3424107290CD1C16851B9816AC6
:1007E00021F480718162816AC90403D4816A41F075
:1007F0000101816200F0B0FA10BD10B5406A816A53
:1008000041F040018162C16A41F00401C16200F01F
:10081000A5FA10BD10B5406A00F09FFA10BD0000A7
:10082000F8B500260446009600688168C943C907E8
:1008300028D0816841F001018160134813490068A4
:10084000B0FBF1F000E0401E00900028FBD100F06A
:100850007DFE054611E000BF00F078FE401B022837
:100860000BD9A06A40F01000A062E06A40F00100DD
:10087000E06284F824600120F8BD20688068C043ED
:10088000C007E9D10020F8BD5401002040420F000C
:10089000FEE7000070B506460025072000F00CF9C1
:1008A000044640060AD500221021074800F049FE00
:1008B00020223146612000F017F90125214627202A
:1008C00000F0E0F8284670BD0008014010B5642033
:1008D00000F042FD1A4C00221021204600F031FEAB
:1008E00001220821204600F02CFE00222021204673
:1008F00000F027FE05221349302000F019F91149B4
:100900000522491D2A2000F013F92021312000F092
:10091000B9F80121212000F0B5F80121222000F0D2
:10092000B1F80421252000F0ADF80721262000F0C1
:10093000A9F80E21BDE81040202000F0A3B8000067
:1009400000080140000000207FB5402000900020FA
:10095000084D0324019069460394284600F00EFDDB
:10096000B82000900120019069460394284600F0C9
:1009700005FD7FBD0008014070B5104D0446002202
:100980001021284600F0DDFD05220D492A2000F047
:10099000CFF820222146A02000F0CAF80E21202006
:1009A00000F070F801221021284600F0CAFDBDE8D1
:1009B0007040FF21272000F065B8000000080140CA
:1009C0000000002010B50A4C00221021204600F043
:1009D000B8FD0F21202000F055F8012210212046FB
:1009E00000F0AFFDBDE81040822000F0B5BC000073
:1009F0000008014010B50A4C00221021204600F0EA
:100A0000A0FD0E21202000F03DF8012210212046FB
:100A100000F097FDBDE81040822000F09DBC000072
:100A2000000801402DE9F041154E05460024280636
:100A300001D5012200E000228021304600F081FD36
:100A4000052000F089FC6806070E012220213046AF
:100A500000F077FD052000F07FFC4021304600F0DB
:100A60006BFD40EA070500222021304600F069FDB9
:100A7000641CE4B2082CDAD32846BDE8F0810000FB
:100A80000008014070B50B4D0E46044600220821B7
:100A9000284600F056FD2046FFF7C4FF04463046C6
:100AA000FFF7C0FF01220821284600F04AFD20463A
:100AB00070BD00000008014070B50A4D04460022D8
:100AC0000821284600F03DFD2046FFF7ABFF00203F
:100AD000FFF7A8FF044601220821284600F031FD57
:100AE000204670BD000801402DE9F041DFF83C8050
:100AF00015460F46044600220821404600F021FD1D
:100B00002046FFF78FFF0646002405E00020FFF790
:100B100089FF3855641CE4B2AC42F7D301220821A6
:100B2000404600F00EFD3046BDE8F081000801406F
:100B30002DE9F041DFF83C8016460D4604460022C0
:100B40000821404600F0FDFC2046FFF76BFF0746FA
:100B5000002405E015F8010BFFF764FF641CE4B204
:100B6000B442F7D301220821404600F0EAFC38469F
:100B7000BDE8F0810008014010B502F01BF80B4CF5
:100B800000220221204600F0DCFC4FF4FA7000F055
:100B90004DF801220221204600F0D3FC1E2000F077
:100BA00045F8BDE8104001F0F7BF00000008014023
:100BB000014800F0BDBA00009803002030B590F85D
:100BC00040500124AC40C56B6C60046863604368AE
:100BD000102B036803D099600068C26030BD9A6032
:100BE0000068C16030BD00000E48016821F08071CE
:100BF0000160016841F0807101600B48016821F0DB
:100C000001010160016841F00101016000214160C2
:100C100000BF00BF00BF406808B10020704701203E
:100C200070470000FCED00E0001000E031B5084D19
:100C30006C6800F071FE0749B0FBF1F00099484381
:100C4000009068680099001B8842FAD338BD000004
:100C5000001000E040420F0070470000F8B500248B
:100C6000009490F824202546012A12D0012280F811
:100C700024204A681F23072A0DD20668776B521E6C
:100C800002EB820293409F430B6893401F437763BC
:100C900019E00220F8BD06680D2A0AD2376BD21F70
:100CA00002EB820293409F430B6893401F433763DC
:100CB00009E0F76A0D3A02EB820293409F430B680A
:100CC00093401F43F7620A68072306680A2A0AD37B
:100CD000F7680A3A02EB420293409F438B689340C5
:100CE0001F43F76008E0376902EB420293409F43DD
:100CF0008B6893401F4337610A68102A01D0112A7C
:100D000020D1124B02689A4217D193681B0219D462
:100D1000936843F4000393600968102912D10C49C9
:100D20000C4A0968B1FBF2F101EB8101490000E0D6
:100D3000491E00910029FBD104E0816A41F02001A5
:100D40008162012480F824502046F8BD002401402F
:100D50005401002040420F00704770477047000068
:100D60002DE9F0414FF0000704003D467ED0A06A17
:100D7000002628B9E66284F82460204600F07EF858
:100D80002046FFF7EDFCA16AC90600D420B1A06A95
:100D900040F01000A06269E0A16A21F4885141F09E
:100DA0000201A1626268E169E3680A4347EA43011C
:100DB0000A43A1684FF48077B94209D0012907D0CE
:100DC0005FF00001D4F814C0BCF1010F02D00AE0BA
:100DD0003946F7E7F3B1A36A43F02003A362E36A5D
:100DE00043F00103E3622368D3F804C02CF4694C98
:100DF0004CEA010CC3F804C021688B68DFF870C0AE
:100E000003EA0C0313438B60A168B9420BD001299C
:100E100009D00CE0DFF85CC0A3690CEB43330B4353
:100E200043F40061DFE7218A0D05A5F580152168EF
:100E3000CB6A23F470032B43CB62216889680E4B85
:100E40001940914208D1E662A16A21F0020141F005
:100E50000101A162BDE8F081A06A20F0020040F02B
:100E60001000A062E06A40F00100E0620120F1E7BA
:100E7000FDF7E1FF00E0FFFFFE0E1FFF30B5054666
:100E80000068174985B0884228D11648816941F425
:100E9000007181618069694600F40070049001204E
:100EA000009003200190104800F068FA104C0F48A1
:100EB0008021206000206060C4E9020149002161B6
:100EC0008900C4E90510E061204600F0DBF918B1A3
:100ED000762108A001F0EEFA2C62656205B030BD03
:100EE00000240140001002400008014008000240B8
:100EF000980300202E2E2F5372632F73746D33329C
:100F0000663178785F68616C5F6D73702E63000086
:100F10002DE9F047894604463B4900683B4F0E1DCA
:100F20009046884201D0B84207D1306810F4702F43
:100F300003D001252846BDE8F08794F82400012855
:100F40000CD0012084F824002046FFF769FC05003E
:100F50004FF0000004D084F82400EBE70220EAE719
:100F6000A16A40F60162914341F48071A162216857
:100F7000B94218D1326812F4702F14D0A16A41F42A
:100F80008011A1623168490505D5A16A21F400519B
:100F900041F48051A162A16AC9040AD5E16A21F035
:100FA0000601E16206E0A26A22F48012A2624968A8
:100FB000E9E7E06284F82400216A15488862216A22
:100FC0001448C862216A1448086321686FF002005F
:100FD00008602068816841F480718160216843461F
:100FE0004A464C31206A00F07FF920688168C1F3DD
:100FF00042410729816803D041F48011816099E75B
:1010000041F4A001FAE7000000240140002801405B
:10101000AD07000815080008FB07000810B50446D6
:1010200090F82400012807D0012084F824002046ED
:10103000FFF796FB10B10EE0022010BD206881681A
:1010400021F480718160206A00F00EF8A16A30B14D
:1010500041F04001A162002184F8241010BD21F468
:10106000885141F00101F5E701680A6822F00E029B
:101070000A6001680A6822F001020A6090F84020C4
:10108000C36B012101FA02F25A6080F8211000219D
:1010900080F820100846704710B590F82110002401
:1010A000022903D00421816301243DE001680A681C
:1010B00022F00E020A6001680A6822F001020A604A
:1010C0001A4A0168914201D1012121E0174A1432E4
:1010D000914201D110211BE0144A2832914201D1E2
:1010E000891515E0114A3C32914201D189140FE073
:1010F0000E4A5032914202D14FF4803108E00B4A3F
:101100006432914202D14FF4801101E04FF08071BE
:10111000064A083A5160012180F82110002180F828
:101120002010416B01B18847204610BD08000240E5
:101130002DE9F05FC16B0C6801680B68D0F840C006
:10114000042202FA0CF2494DDFF824A1494E4A4F1D
:10115000DFF828B1DFF828E122422CD05A072AD53F
:101160000A68920603D40A6822F004020A60016841
:10117000A94201D1042219E0514501D1402215E0D4
:10118000B14202D14FF4806210E0B94202D14FF473
:1011900080420BE0594502D14FF4802206E07145B0
:1011A00002D14FF4800201E04FF080622F490839EC
:1011B0004A60C16A3BE04FF0020808FA0CF818EAEE
:1011C000040F4FF000094FF0010235D05FEA837839
:1011D00032D50B689B0605D40B6823F00A030B601D
:1011E00080F821200168A94201D1022219E051456D
:1011F00001D1202215E0B14202D14FF4007210E07B
:10120000B94202D14FF400520BE0594502D14FF4DC
:10121000003206E0714502D14FF4001201E04FF0B8
:101220000072124908394A6080F82090816A0029CA
:101230001AD0BDE8F05F0847082505FA0CF52542ED
:1012400012D01B0710D50B6823F00E030B6090F82B
:101250004010C36B02FA01F15960826380F82120CB
:1012600080F82090016BE2E7BDE8F09F08000240A3
:101270001C0002403000024044000240580002407E
:101280006C00024030B548B308C81549142219440F
:10129000B1FBF2F18900C1631249816302214177F8
:1012A0001A6843F6F0718A43D0E900142143D0E96B
:1012B00002452C4321430469214344692143846945
:1012C000214311431960002141628162C1620163BF
:1012D0004163012242770177084630BD012030BDCD
:1012E000F8FFFDBF0000024070B5044690F82000F2
:1012F000002501280CD0012084F8200094F82160FA
:101300000020012E06D084F820000225284670BD5A
:10131000022070BD022684F82160A0632068066860
:1013200026F0010606602046FFF748FCE06A002828
:101330002068016802D041F00E0106E021F00401AE
:1013400001602068016841F00A01016020680168BD
:1013500041F001010160D9E770B5044600F0F6F8EC
:101360000546601C02D004480078044400F0EEF802
:10137000401BA042FAD370BD480100202DE9F84F70
:10138000DFF890A100220AF1040B144601274FF068
:101390000F090BF1040E00BF0B6807FA04F52B4090
:1013A000AB4274D1DFF870C14E68A6EB0C086645FD
:1013B0002BD00DDC032E34D005DC36B3012E19D032
:1013C000022E2FD11BE0112E16D0122E2AD119E099
:1013D000B8F5881F19D006DCB8F5803F15D0B8F5F0
:1013E000801F1FD111E0B8F5001F0ED0B8F5041F03
:1013F00018D10AE0CA6815E0CA68121D12E0CA686E
:1014000008320FE0CA680C320CE08A682AB1012A5F
:101410004FF0080203D0456104E0042202E00561B8
:1014200000E00022FF2B01D8064601E000F104068F
:101430004FEA840501D9A5F12005D6F800C009FAC4
:1014400005F82CEA080C02FA05F54CEA050CC6F87A
:1014500000C04D68ED0057D5304DAE6946F001062D
:10146000AE61AD6924F0030605F0010500952C4D31
:1014700006EB050CDCF80850A6074FEA167809FAC7
:1014800008F6B543274EB04202D1002610E03BE0FB
:10149000254EB04201D101260AE0244EB04201D1CE
:1014A000022605E0224EB04201D1032600E00426C8
:1014B00006FA08F62E43CCF808604D68DAF80060AA
:1014C000ED03554601D51E4300E09E432E604D6856
:1014D000DBF80060AD035D4601D51E4300E09E438E
:1014E0002E604D68DEF80060ED02754601D51E43A2
:1014F00000E09E432E604D68AD020E4D2E6801D572
:101500001E4300E09E432E60641C102CFFF444AF89
:10151000BDE8F88F000401400000111000100240E7
:101520000000014000080140000C01400010014093
:10153000001401400C0401408068084000D00120E4
:1015400070470AB1016170470904FBE701488068F0
:101550007047000048010020024881680278114469
:101560008160704748010020074810B5016841F0CC
:1015700010010160032000F09DF8002000F006F843
:1015800000F024F8002010BD0020024070B50D4D81
:1015900004464FF47A712878B1FBF0F00A490968E3
:1015A000B1FBF0F000F0A3FB48B9102C07D20022E9
:1015B0002146501E00F05EF800206C6070BD0120D6
:1015C00070BD00004801002054010020214808B5EA
:1015D000816941F001018161816901F0010100919E
:1015E000C16941F08051C161C06900F08050009034
:1015F000032000F05FF8002211466FF00B0000F0AE
:1016000039F8002211466FF00A0000F033F800228A
:1016100011466FF0090000F02DF800221146501F0E
:1016200000F028F800221146101F00F023F80022D5
:101630001146901E00F01EF800221146501E00F0C8
:1016400019F80548416821F0E06141F000714160FE
:1016500008BD0000001002400000014000F01F0221
:10166000012191404009800000F1E020C0F8001104
:1016700070470000F0B40E4B1B680C46C3F3022306
:10168000C3F10705042D00D90425191D072901D22E
:10169000002300E0DB1E012606FA05F1491E214069
:1016A00099409E40761E16403143F0BC00F0F0BCDD
:1016B0000CED00E0064900F0070208684FF6FF0352
:1016C000184040EA0220034A1043086070470000B7
:1016D0000CED00E00000FA052DE9F843054600781E
:1016E000354CC00754D0E0690026C00008D4E0693A
:1016F00040F08050E061E069012600F080500090E9
:101700002E480168C90512D40168804641F48071F1
:101710000160FFF71BFF074605E000BFFFF716FF5C
:10172000C01B642823D8D8F80000C005F6D5206A6D
:1017300010F4407021D0A98801F4407181421CD07E
:10174000206A1F49012220F440700A6000220A60CA
:101750002062C00711D0FFF7F9FE074641F2883832
:1017600008E000BFFFF7F2FEC11B414502D903208C
:10177000BDE8F883206A8007F4D5206A696820F400
:101780004070084320621EB1E06920F08050E061A3
:101790002878800705D56068A96820F44040084390
:1017A00060602878C00605D56068E96820F480008C
:1017B000084360600020DBE700100240007000403A
:1017C000400442422DE9F047DFF83C8105460E46D1
:1017D000D8F8000000F00700B0420CD2D8F8001092
:1017E00021F007013143C8F80010D8F8000000F0DC
:1017F0000700B04263D12878444C800705D5606863
:10180000A96820F0F000084360602878C00745D040
:101810006868012816D02168022816D08907002997
:101820004DDA616821F0030101436160FFF78EFE2C
:101830006968074641F2883001290FD002298146A4
:1018400019D027E021688903E9E78901E7E700BFAC
:10185000FFF77CFEC11B494501D918E0814660684D
:10186000C0F381000128F3D118E000BFFFF76EFE3E
:10187000C11B49450BD86068C0F381000228F5D12F
:101880000CE000BFFFF762FEC11B494502D90320EF
:10189000BDE8F087606810F00C0FF3D1D8F80010A5
:1018A000404601F00701B1420BD9016821F0070160
:1018B00031430160006800F00700B04201D0012010
:1018C000E6E72878400705D56068E96820F4E0601D
:1018D000084360602878000706D56068296920F40D
:1018E000605040EAC100606000F03CF86168084A5E
:1018F000C1F30311515CC840064908600020FFF79E
:1019000045FE0020C4E70000002002400010024015
:10191000D02B0008540100200148006870470000E7
:10192000540100200448054900684968044AC1F38D
:101930000221515CC8407047540100200010024051
:10194000E02B00080448054900684968044AC1F3CF
:10195000C221515CC8407047540100200010024071
:10196000E02B000812A185B00FC98DE80F0014A06C
:10197000144A006804905168134801F00C03042BCA
:1019800010D0082B0ED1C1F38343C9031DF8030007
:101990000AD5516804AAC1F34041515C0A4A504338
:1019A000B0FBF1F005B0704708494843FAE7000082
:1019B00002030405060708090A0B0C0D0E0F101090
:1019C000010200000010024000127A0000093D00F0
:1019D0002DE9F84F04460078B94DC00748D0686833
:1019E000C0F38100012807D06868C0F38100022895
:1019F00009D16868C00306D52868800338D56068B7
:101A000000286FD034E06068B0F5803F0BD010B193
:101A1000B0F5A02F11D0286820F480302860286805
:101A200020F4802002E0286840F48030286060685C
:101A300088B1FFF78BFD064609E0286840F4802056
:101A40002860F0E7FFF782FD801B642875D82868BE
:101A50008003F7D50CE0FFF779FD064605E000BFEF
:101A6000FFF774FD801B6428F0D828688003F7D442
:101A70002078944E80074FF001094FF000083BD5C5
:101A8000686810F00C0F07D06868C0F38100022866
:101A900009D16868C00306D42868800714D5206976
:101AA00001281FD110E02069B0B1C6F80090FFF7FF
:101AB0004DFD074605E000BFFFF748FDC01B0228AB
:101AC000C4D828688007F7D52868616920F0F80035
:101AD00040EAC10028600FE0C6F80080FFF736FD3D
:101AE000074606E0E9E000BFFFF730FDC01B022813
:101AF00023D828688007F7D4207800072CD57248AF
:101B0000A169D9B1C0F80090FFF720FD074604E0B5
:101B1000FFF71CFDC01B02280FD8686A8007F7D5A5
:101B20006A484FF4FA510068B0FBF1F0009000BF32
:101B30000098411E0091FAD20EE080E0C0F80080CB
:101B4000FFF704FD074604E0FFF700FDC01B022875
:101B500075D8686A8007F7D42078400760D5E869AF
:101B60000027C00008D4E86940F08050E861E869C7
:101B7000012700F08050009055480168C90513D432
:101B80000168834641F480710160FFF7DFFC824603
:101B900006E000BFFFF7DAFCA0EB0A0064284ED88D
:101BA000DBF80000C005F5D5E06801280AD008B1CF
:101BB000052813D0286A20F001002862286A20F046
:101BC000040002E0286A40F001002862E06841F267
:101BD000883B98B1FFF7BAFC82460BE0286A40F0D8
:101BE00004002862EEE700BFFFF7B0FCA0EB0A019B
:101BF00059455AD8286A8007F6D50CE0FFF7A6FCAD
:101C0000824605E0FFF7A2FCA0EB0A0159454CD83B
:101C1000286A8007F6D41FB1E86920F08050E86197
:101C2000E06988B36968C1F38101022945D00228BF
:101C3000C6F8608004D0FFF789FC044638E034E041
:101C4000FFF784FC074604E0FFF780FCC01B022876
:101C50002BD828688001F7D4206AB0F5803F05D1E1
:101C60006868A16820F4003008436860D4E908017E
:101C70000843696821F4741108436860C6F86090ED
:101C8000FFF764FC044606E015E000BFFFF75EFCCA
:101C9000001B022809D828688001F7D50BE000BF97
:101CA000FFF754FC001B022802D90320BDE8F88F7F
:101CB00028688001F4D40020F8E70120F6E700004E
:101CC00000100240000042428004424254010020C1
:101CD000007000404FF0E0210428086903D020F094
:101CE00004000861704740F00400FAE7704710B53F
:101CF000401EB0F1807F01D3012010BD4FF0E024E1
:101D000060610F21601700F0C3F90020A061072077
:101D10002061002010BD10B5FFF7E8FF10BD70472F
:101D200070B5026804461068D168536910F00F0F4F
:101D300050D003F0010501F4907635435DD0C20721
:101D400005D0CA0503D5E26B42F00102E263420707
:101D500005D5DA0703D0E26B42F00202E2638207A4
:101D600005D5DA0703D0E26B42F00402E263020712
:101D700005D5DA0703D0E26B42F00802E263E26BBA
:101D8000002A33D0800604D5880602D5204600F00C
:101D90000FFA20684069E16BC0F38010090700D496
:101DA00028B3204600F0F6F92068416949061AD5A3
:101DB000416921F040014161606BA0B11B49416361
:101DC000606BFFF769F9002810D0606B416BBDE8CC
:101DD00070400847830610D58B060ED52046BDE817
:101DE000704000F0E5B92046FFF799FF70BD20462E
:101DF000FFF795FF0020E06370BD030606D50B06D4
:101E000004D52046BDE8704000F0D6BA4006F3D5B0
:101E10004806F1D5D168204621F04001D16020214B
:101E200084F8391000F0C8F870BD00008521000862
:101E300070B5040004D094F83900002510B106E014
:101E4000012070BD84F83850204600F023F824208B
:101E500084F839002068C16821F40051C16020462F
:101E600000F0F2F92068016921F4904101612068D5
:101E7000416921F02A0141612068C16841F40051A3
:101E8000C160E563202084F8390084F83A0000201E
:101E900070BD000010B50068154986B0884225D194
:101EA0001448816941F4804181618069124C00F4D9
:101EB000804004904FF400700090022001900320B5
:101EC000039069462046FFF759FA00212015CDE915
:101ED0000001029169462046FFF750FA00221146A0
:101EE0002520FFF7C7FB2520FFF7B8FB06B010BD84
:101EF00000380140001002400008014070472DE901
:101F0000F843044690F839001F4616460D4620282F
:101F100050D1A5B19EB194F8380001284AD00120D3
:101F200084F838004FF00008C4F83C80212084F881
:101F30003900FFF70BFBA6848146E68426E00120EA
:101F4000BDE8F883E08C401EE084A0684B46B0F505
:101F5000805F4FF000024FF080012046009703D0D1
:101F600000F05BFAE8B90DE000F057FAC8B928882C
:101F70002168C0F308004860206908B16D1C05E0C5
:101F8000AD1C03E0216815F8010B4860E08C0028C7
:101F9000D8D14B46002240212046009700F03DFA60
:101FA00008B10320CCE7202084F8390084F8388079
:101FB0000020C5E70220C3E77047FEE73EB50F48A3
:101FC00000240D498460C4604461016001250561FD
:101FD0004FF460214460C161FEF7C2FE00B1FEE72C
:101FE000CDE90045694605480294FEF737FE002812
:101FF00000D0FEE73EBD0000002401405801002053
:1020000070B51F4886B0816941F020018161816906
:1020100001F020010491816941F00401816181692D
:1020200001F004010491816941F008018161816935
:1020300001F008010491816941F01001816180691A
:10204000104E00F010004FF480440490002221460E
:102050003046FFF776FA00250220CDE902500094C1
:102060000124694601943046FFF788F9E003CDE981
:102070000005694602940448FFF780F906B070BD78
:102080000010024000100140000C0140FEE77047C4
:102090000907090E002806DA00F00F0000F1E02021
:1020A00080F8141D704700F1E02080F8001470479C
:1020B0007047704710B5FFF74FFABDE81040FFF7C3
:1020C0002ABE30B593B001210804CDE900100025E7
:1020D000029502240491CDE907404FF4E0100990E5
:1020E0006846FFF775FC00B1FEE70AA90F2081E8FA
:1020F00031004FF48060CDE90D0502210AA8FFF7F9
:1021000061FB00B1FEE74FF4004011900F940FA85F
:10211000FFF7E2FA00B1FEE7FFF7FEFB4FF47A713A
:10212000B0FBF1F0FFF7E3FD0420FFF7D3FD002241
:102130001146501EFFF79EFA13B030BD0D480168DE
:1021400041F00101016041680B4A114041600168A2
:102150000A4A11400160016821F480210160416850
:1021600021F4FE0141604FF41F0181600449C00366
:1021700008607047001002400000FFF8FFFFF6FE05
:1021800008ED00E010B5406A0021C185C184FFF769
:10219000C6FD10BD0168CA6822F49072CA60016869
:1021A0004A6922F001024A61202180F83A10704702
:1021B00010B590F83A10222901D0022010BD816894
:1021C000B1F5805F11D00169002901681FD049680D
:1021D00001F07F03816A4A1C82620B70C18D491E27
:1021E0000904090CC18518D02BE00269816A002A14
:1021F0000268526805D0D2B20A80816A491C8162A5
:10220000ECE7C2F308020A80816A891CF7E74A6892
:10221000816A4B1C83620A70E0E70168CA6822F099
:102220002002CA600168CA6822F48072CA6001682C
:102230004A6922F001024A61202180F83A10FFF732
:102240005DFE002010BD00002DE9F041044600684D
:102250000169E26821F44051114301612169A068DC
:102260000843616908432168CA6841F20C639A43D4
:102270000243CA6020684169A26921F44071114398
:1022800041614C4920686425322688423CD1FFF7E1
:1022900059FB00EBC00101EB001061688900B0FB45
:1022A000F1F7FFF74FFB00EBC00101EB0010616895
:1022B000B0468900B0FBF1F0B0FBF5F06FF018010B
:1022C000484307EB800106EB0110B0FBF5F000F08E
:1022D000F006FFF737FB00EBC00101EB001061686F
:1022E0008900B0FBF1F0B0FBF5F006EB0016FFF74C
:1022F00029FB00EBC00101EB001061688900B0FB15
:10230000F1F7FFF71FFB3BE0FFF70CFB00EBC00111
:1023100001EB001061688900B0FBF1F7FFF702FBE9
:1023200000EBC00101EB00106168B0468900B0FB12
:10233000F1F0B0FBF5F06FF01801484307EB8001B6
:1023400006EB0110B0FBF5F000F0F006FFF7EAFA3B
:1023500000EBC00101EB001061688900B0FBF1F0F7
:10236000B0FBF5F006EB0016FFF7DCFA00EBC0015E
:1023700001EB001061688900B0FBF1F7FFF7D2FABA
:1023800000EBC00101EB001061688900B0FBF1F0C7
:10239000B0FBF5F06FF01801484307EB800108EB44
:1023A0000110B0FBF5F0216800F00F0030448860A8
:1023B000BDE8F0810038014090F83910212901D0A2
:1023C000022070478168B1F5805F016A0BD04A1C1A
:1023D0000262026809785160C18C491E0904090C27
:1023E000C1840ED017E009880268C1F3080151606A
:1023F00001690029016A02D0491C0162ECE7891CCD
:10240000FBE70168CA6822F08002CA600068C16800
:1024100041F04001C160002070472DE9F04198462D
:1024200017460E460446069D1DE0681C1BD02DB1C4
:10243000FFF78CF8A0EB0800A84214D92068C16807
:1024400021F4D071C1602068416921F0010141612E
:10245000202084F8390084F83A00002084F83800FD
:102460000320BDE8F0812068006836EA000004D04F
:102470000020B842D9D00020F3E70120F9E700009E
:102480000148FFF74DBC00008801002010B5104442
:10249000002303700A2308E0B1FBF3F403FB1414D8
:1024A000B1FBF3F1303400F8014D521ED2B2F3D239
:1024B00010BDFEE7FEE700000FB41CB50246002089
:1024C00007AC00290BD0491ECDE90021054B6A4617
:1024D0002146069800F017F8009A002111701CBCE4
:1024E0005DF814FBDD25000802E008C8121F08C1D2
:1024F000002AFAD170477047002001E001C1121F85
:10250000002AFBD170472DE9F84F9946924688463C
:102510000546002706E025280AD051464A4690473E
:102520006D1C7F1C28780028F5D13846BDE8F88F4F
:10253000002315F8011F18462E2915D115F8011F83
:1025400004232A290DD06FF02F022978A1F130043D
:10255000092C09D800EB800002EB400008446D1CF8
:10256000F3E758F8040B6D1C2A78002ADDD0632AA3
:1025700007D0732A0FD0104651464A4690477F1C19
:102580002AE018F8042B8DF8002000218DF80110A6
:102590006E46012103E058F8046B4FF0FF315A07F3
:1025A0004FF0000401D409E0641C84420BDA8C4231
:1025B000FADB325D002AF7D105E0641C8C42FCDBBB
:1025C000305D0028F9D1274404E016F8010B51468C
:1025D0004A469047641EF8D26D1CA3E74A68002A59
:1025E00006D00A68531C0B6010704868401E486093
:1025F0007047000010B52820FEF718FB0B4C022195
:102600002046FEF799FF50B95020FEF70FFB02213C
:102610002046FEF791FF10B1054901200870022104
:102620002046FEF789FF0028F9D110BD00080140BF
:102630000C00002008B5FEF797FFFFF742FDFFF7FB
:10264000DFFC9E48416941F001014161406900227F
:1026500000F00100009011460B20FFF70BF80B2053
:10266000FEF7FCFF97489649002501604FF4E131E1
:10267000C0E901150C21C560C0E904518561C5613F
:10268000FFF7D6FB00B1FEE7FFF798FCFEF7ACFAC8
:10269000FEF75AF9FEF71AF9FF212720FEF7F2F9A3
:1026A000FEF790F9884CDFF8249201264FF4804819
:1026B000256187486561FEF7EDF80128F8D12823E8
:1026C0000E2284A17F48FFF71AFC81490522A1F15F
:1026D000E000FDF739FD7E4F0222791DA7F1C00011
:1026E000FDF732FD07F110010222A1F1B000FDF764
:1026F0002BFD0222F91DA7F18000FDF725FD07F152
:1027000012010222A1F17200FDF71EFD07F109017D
:102710000222A1F14900FDF717FD07F11401022281
:10272000A1F13400FDF710FD6749A7F1E0005C312D
:10273000FDF716FD00287DD105232022394661488A
:10274000FFF7DDFB6049052320229C315D48FFF740
:10275000D6FB05232022A7F1E0015A48FFF7CFFB63
:102760005949052320229C315648FFF7C8FB2021F8
:102770003846FDF7DEFC012241464846FEF7E1FE01
:10278000514A58A12832A7F1C000FDF7F7FC4E4A84
:1027900054A12432A7F1A000FDF7F0FC4A4A51A150
:1027A0003032A7F18000FDF7E9FC474A4DA12C32F9
:1027B000A7F16000FDF7E2FC434A4AA13832A7F1D5
:1027C0004000FDF7DBFC404A46A13432A7F120006F
:1027D000FDF7D4FC00F0C6F805230F2242A13948CA
:1027E000FFF78DFB05232022A7F5D0713548FFF7B1
:1027F00086FBFEF7FFF8A7F5D070FEF7BDF80523BE
:1028000024223DA12F48FFF77AFBFEF7DBF828E0F2
:102810006069401C60612E48FEF73CF8012816D123
:1028200029492B483C31FDF79BFC68B305230C225A
:102830003AA100E018E023482661FFF760FBFF2182
:102840002720FEF71FF920212148FDF772FC60695F
:10285000642806DD0523232233A11A482661FFF7E9
:102860004EFB20690028D3D020211948FDF761FCD8
:10287000FF212720FEF706F9FEF7A4F800224146C3
:102880004846FEF75EFE13E70523202210490D4857
:10289000FFF735FB05230C222CA10A482661FFF720
:1028A0002EFBFEF7A7F808487C30FEF765F80523F5
:1028B0000A2229A10348FFF722FBC4E700100240C7
:1028C00000380140880100200C0000200010014069
:1028D000780300200D0A6368756F69206E68616E69
:1028E0000D0A00002564000064616E672074727533
:1028F00079656E0D0A0000000D0A6B69656D207424
:10290000726120636F206E68616E2064756F632052
:102910006F6B206B686F6E670D0A00006368756FE0
:1029200069206C6F690D0A006865742067696F2003
:1029300063686F203D3E206B686F6E67207468612E
:102940006E6820636F6E670D0A00000074727579FF
:10295000656E206F6B0D0A004B455420544855435B
:102960000D0A000070B58CB0FEF706F9FFF742FEC5
:1029700000F0E4F85E4C607000F0E0F8A07000F049
:10298000DDF8E07000F0DAF8207100F0D7F8E080B0
:102990006378A278E1789D186E1825792E448642D6
:1029A00005D145EA0120608142EA03202081504997
:1029B00001220C314F48FEF7ABFA0120FEF7CCFCA8
:1029C0004C48FEF72BFBA08964214843000BA06113
:1029D00060890A25B0FBF5F1E16121890222B1FB92
:1029E000F5F12162B0FBF5F14248A030FFF74EFD52
:1029F00060890122B0FBF5F105FB11013D48C030B3
:102A0000FFF744FD20890222B0FBF5F13948E030A0
:102A1000FFF73CFD20890122B0FBF5F105FB110118
:102A20003548FFF733FDA0690222C0F16405324842
:102A300029462030FFF72AFDA06BA8422EDA606BF2
:102A400085422BDAA16AE069814227DA616A88420D
:102A500024DA216B206A814220DAE16A88421DDA99
:102A60002349244805232022BC313030FFF747FAA0
:102A700022A324A20A2106A8FFF71EFD60894FF0B9
:102A800005031F3809284FF0200211D218491948B0
:102A9000FC313030FFF733FA1BA30FE0144915481F
:102AA00005232022DC313030FFF729FA17A3E0E7B5
:102AB000104818493030FFF722FA17A311A20A2153
:102AC00009A8FFF7F9FC0C490B4802AC06AB09AAB0
:102AD000203184E80F0040384039CDE90001A0F1F1
:102AE00020030EA220214038FFF7E6FC0CB070BD99
:102AF0000C00002058010020580200204F4E5F3289
:102B00006200000025730000440000004F46465F4D
:102B100032620000280100204D000000433D257373
:102B20002E257326483D25732E257326533D257388
:102B300026523D2573264D3D257300002DE9F041B9
:102B40000024144F012602213846FEF7F5FC002828
:102B5000F9D02820FEF76AF802213846FEF7ECFC8F
:102B600090B1C4F1070106FA01F02843C5B2022171
:102B70003846FEF7E1FC0028F9D1641CE4B2082CC9
:102B8000E1D32846BDE8F081C4F1070006FA00F061
:102B90008543ECE700080140044802210160002160
:102BA0004160816001460248FEF7E8BBC801002091
:102BB00000080140044802210122C0E90012C1605E
:102BC00001460248FEF7DABBC801002000080140B8
:102BD00000000000000000000102030406070809CD
:102BE0000000000001020304DDDDDDDDDCBBBBDD38
:102BF000DDDDDDDDDDDDDDDD98888888888888889D
:102C000077777777778888888555555666666666BC
:102C1000666666666668888883333332222222229B
:102C2000222222222228888D482C00080000002021
:102C30005801000008070008942C000858010020E3
:102C400088060000F82400081A11013A0205013E26
:102C5000051C6F6B0D0A0E1B6D696E326140011E03
:102C6000091C5E2108081762617420626F6D270AD3
:102C70001D7420080D12646F6E67206D61692063FA
:102C80006865250B1A6D6F1E21320182100400A2A7
:042C90004A040000F2
:04000005080000ED02
:00000001FF
