:020000040800F2
:10000000B0050020010100085B120008A7110008DC
:1000100059120008DF01000849160008000000001E
:100020000000000000000000000000007F12000837
:1000300009050008000000007D1200088112000878
:100040001B0100081B0100081B0100081B01000820
:100050001B0100081B0100081B0100080B0500081C
:100060001B0100081B0100081B0100081B01000800
:100070001B0100081B0100081B0100081B010008F0
:100080001B0100081B0100081B0100081B010008E0
:100090001B0100081B0100081B0100081B010008D0
:1000A0001B0100081B0100081B0100081B010008C0
:1000B0001B0100081B0100081B0100081B010008B0
:1000C0001B0100081B0100081B0100081B010008A0
:1000D0001B0100083D1600081B0100081B01000859
:1000E0001B0100081B0100081B010008DFF80CD0F1
:1000F00000F038F800480047CD160008B005002091
:100100000648804706480047FEE7FEE7FEE7FEE7B1
:10011000FEE7FEE7FEE7FEE7FEE7FEE7F91200086E
:10012000ED000008D2B201E000F8012B491EFBD21D
:1001300070470022F6E710B513460A4604461946F2
:10014000FFF7F0FF204610BD10B5002200E0521C62
:10015000835C8C5CA34201D1002BF8D1D8B2E1B210
:10016000401A10BD064C074D06E0E06840F0010360
:1001700094E8070098471034AC42F6D3FFF7BAFF73
:10018000741B0008941B000870B58C1810F8015BF4
:1001900015F0070301D110F8013B2A1106D110F820
:1001A000012B03E010F8016B01F8016B5B1EF9D124
:1001B0002B0705D40023521E0DD401F8013BFAE7AA
:1001C00010F8013BCB1A921C03E013F8015B01F815
:1001D000015B521EF9D5A142D8D3002070BDFEE7C5
:1001E00070B506460025072000F00CF904464006CD
:1001F0000AD500221021074800F00FFB20223146CB
:10020000612000F017F901252146272000F0E0F8D1
:10021000284670BD0008014010B5642000F0C4F904
:100220001A4C00221021204600F0F7FA0122082182
:10023000204600F0F2FA00222021204600F0EDFADC
:1002400005221349302000F019F911490522491DF2
:100250002A2000F013F90121212000F0B9F8012132
:10026000222000F0B5F80421252000F0B1F820216B
:10027000312000F0ADF80721262000F0A9F80E216A
:10028000BDE81040202000F0A3B8000000080140A5
:10029000000000207FB5402000900020084D03247E
:1002A000019069460394284600F0D4F9B8200090E4
:1002B0000120019069460394284600F0CBF97FBDE8
:1002C0000008014070B5104D044600221021284658
:1002D00000F0A3FA05220D492A2000F0CFF82022D1
:1002E0002146A02000F0CAF80E21202000F070F86E
:1002F00001221021284600F090FABDE87040FF214D
:10030000272000F065B80000000801400000002030
:1003100010B50A4C00221021204600F07EFA0F2171
:10032000202000F055F801221021204600F075FA37
:10033000BDE81040822000F037B9000000080140FD
:1003400010B50A4C00221021204600F066FA0E215A
:10035000202000F03DF801221021204600F05DFA37
:10036000BDE81040822000F01FB9000000080140E5
:100370002DE9F041154E05460024280601D501223D
:1003800000E000228021304600F047FA052000F00E
:100390000BF96806070E01222021304600F03DFAD5
:1003A000052000F001F94021304600F031FA40EA22
:1003B000070500222021304600F02FFA641CE4B229
:1003C000082CDAD32846BDE8F0810000000801407F
:1003D00070B50B4D0E46044600220821284600F059
:1003E0001CFA2046FFF7C4FF04463046FFF7C0FF63
:1003F00001220821284600F010FA204670BD0000B6
:100400000008014070B50A4D044600220821284624
:1004100000F003FA2046FFF7ABFF0020FFF7A8FF2C
:10042000044601220821284600F0F7F9204670BD55
:10043000000801402DE9F041DFF83C8015460F46E9
:10044000044600220821404600F0E7F92046FFF765
:100450008FFF0646002405E00020FFF789FF38558E
:10046000641CE4B2AC42F7D301220821404600F0FC
:10047000D4F93046BDE8F081000801402DE9F04193
:10048000DFF83C8016460D4604460022082140460F
:1004900000F0C3F92046FFF76BFF0746002405E094
:1004A00015F8010BFFF764FF641CE4B2B442F7D304
:1004B00001220821404600F0B0F93846BDE8F0813D
:1004C000000801400E48016821F080710160016858
:1004D00041F0807101600B48016821F00101016069
:1004E000016841F0010101600021416000BF00BFCF
:1004F00000BF406808B1002070470120704700002D
:10050000FCED00E0001000E07047022000F096B81B
:1005100010B590F821100024022903D00421816332
:1005200001243DE001680A6822F00E020A600168B9
:100530000A6822F001020A601A4A0168914201D158
:10054000012121E0174A1432914201D110211BE010
:10055000144A2832914201D1891515E0114A3C32E2
:10056000914201D189140FE00E4A5032914202D1DA
:100570004FF4803108E00B4A6432914202D14FF4CB
:10058000801101E04FF08071064A083A5160012164
:1005900080F82110002180F82010416B01B18847BC
:1005A000204610BD0800024070B5044600F03AF93C
:1005B0000546601C02D004480078044400F032F97B
:1005C000401BA042FAD370BD20010020F8B5164DA3
:1005D0000221284600F01CF9002824D113480169A3
:1005E000491C0161C8074FF4006101D0012200E0FD
:1005F0000022284600F011F90E4C0D480090666864
:1006000000F080FA0C49B0FBF1F0009948430090EB
:1006100060680099801B8842FAD30221284600F0C6
:10062000F7F80028F9D0F8BD000C01400C000020BC
:10063000400D0300001000E040420F00044910B5D7
:100640000A68024202D00860FFF7C0FF10BD000038
:10065000140401402DE9F84FDFF890A100220AF1BF
:10066000040B144601274FF00F090BF1040E00BFD5
:100670000B6807FA04F52B40AB4274D1DFF870C168
:100680004E68A6EB0C0866452BD00DDC032E34D04B
:1006900005DC36B3012E19D0022E2FD11BE0112E0E
:1006A00016D0122E2AD119E0B8F5881F19D006DC11
:1006B000B8F5803F15D0B8F5801F1FD111E0B8F50F
:1006C000001F0ED0B8F5041F18D10AE0CA6815E063
:1006D000CA68121D12E0CA6808320FE0CA680C32FC
:1006E0000CE08A682AB1012A4FF0080203D0456164
:1006F00004E0042202E0056100E00022FF2B01D8A3
:10070000064601E000F104064FEA840501D9A5F18F
:100710002005D6F800C009FA05F82CEA080C02FA00
:1007200005F54CEA050CC6F800C04D68ED0057D53C
:10073000304DAE6946F00106AE61AD6924F00306A6
:1007400005F0010500952C4D06EB050CDCF8085072
:10075000A6074FEA167809FA08F6B543274EB042C5
:1007600002D1002610E03BE0254EB04201D1012627
:100770000AE0244EB04201D1022605E0224EB042EA
:1007800001D1032600E0042606FA08F62E43CCF831
:1007900008604D68DAF80060ED03554601D51E4348
:1007A00000E09E432E604D68DBF80060AD035D46BF
:1007B00001D51E4300E09E432E604D68DEF80060C8
:1007C000ED02754601D51E4300E09E432E604D6844
:1007D000AD020E4D2E6801D51E4300E09E432E60F3
:1007E000641C102CFFF444AFBDE8F88F00040140F6
:1007F00000001110001002400000014000080140FC
:10080000000C014000100140001401400C040140A4
:100810008068084000D0012070470AB1016170472C
:100820000904FBE7014880687047000020010020B0
:1008300002488168027811448160704720010020DD
:10084000074810B5016841F010010160032000F075
:100850009DF8002000F006F800F024F8002010BDFC
:100860000020024070B50D4D04464FF47A7128788F
:10087000B1FBF0F00A490968B1FBF0F000F02DFB84
:1008800048B9102C07D200222146501E00F05EF815
:1008900000206C6070BD012070BD000020010020B0
:1008A0002C010020214808B5816941F001018161D6
:1008B000816901F001010091C16941F08051C1617C
:1008C000C06900F080500090032000F05FF8002223
:1008D00011466FF00B0000F039F8002211466FF05E
:1008E0000A0000F033F8002211466FF0090000F012
:1008F0002DF800221146501F00F028F80022114662
:10090000101F00F023F800221146901E00F01EF880
:1009100000221146501E00F019F80548416821F0E8
:10092000E06141F00071416008BD0000001002402C
:100930000000014000F01F020121914040098000A9
:1009400000F1E020C0F8001170470000F0B40E4B39
:100950001B680C46C3F30223C3F10705042D00D91D
:100960000425191D072901D2002300E0DB1E012602
:1009700006FA05F1491E214099409E40761E164018
:100980003143F0BC00F06ABC0CED00E0064900F019
:10099000070208684FF6FF03184040EA0220034AA6
:1009A00010430860704700000CED00E00000FA05FD
:1009B0002DE9F047DFF83C8105460E46D8F80000E7
:1009C00000F00700B0420CD2D8F8001021F0070167
:1009D0003143C8F80010D8F8000000F00700B0421A
:1009E00063D12878444C800705D56068A96820F059
:1009F000F000084360602878C00745D06868012887
:100A000016D02168022816D0890700294DDA6168BE
:100A100021F0030101436160FFF704FF69680746A5
:100A200041F2883001290FD00229814619D027E0F0
:100A300021688903E9E78901E7E700BFFFF7F2FED4
:100A4000C11B494501D918E081466068C0F38100A7
:100A50000128F3D118E000BFFFF7E4FEC11B4945B0
:100A60000BD86068C0F381000228F5D10CE000BF0C
:100A7000FFF7D8FEC11B494502D90320BDE8F08726
:100A8000606810F00C0FF3D1D8F80010404601F068
:100A90000701B1420BD9016821F007013143016020
:100AA000006800F00700B04201D00120E6E7287896
:100AB000400705D56068E96820F4E060084360609D
:100AC0002878000706D56068296920F4605040EA5C
:100AD000C100606000F03CF86168084AC1F303118E
:100AE000515CC840064908600020FFF7BBFE0020AB
:100AF000C4E7000000200240001002405C1B000818
:100B00002C01002001480068704700002C010020E3
:100B10000448054900684968044AC1F30221515C50
:100B2000C84070472C010020001002406C1B0008D8
:100B30000448054900684968044AC1F3C221515C70
:100B4000C84070472C010020001002406C1B0008B8
:100B500012A185B00FC98DE80F0014A0144A0068D7
:100B600004905168134801F00C03042B10D0082B9B
:100B70000ED1C1F38343C9031DF803000AD55168A0
:100B800004AAC1F34041515C0A4A5043B0FBF1F062
:100B900005B0704708494843FAE70000020304051E
:100BA000060708090A0B0C0D0E0F101001020000B9
:100BB0000010024000127A0000093D002DE9F84FB4
:100BC00004460078B94DC00748D06868C0F381007A
:100BD000012807D06868C0F38100022809D168683D
:100BE000C00306D52868800338D5606800286FD018
:100BF00034E06068B0F5803F0BD010B1B0F5A02FA5
:100C000011D0286820F480302860286820F48020E3
:100C100002E0286840F480302860606888B1FFF7FF
:100C200001FE064609E0286840F480202860F0E7CD
:100C3000FFF7F8FD801B642875D828688003F7D576
:100C40000CE0FFF7EFFD064605E000BFFFF7EAFD09
:100C5000801B6428F0D828688003F7D42078944E4D
:100C600080074FF001094FF000083BD5686810F08D
:100C70000C0F07D06868C0F38100022809D16868AA
:100C8000C00306D42868800714D5206901281FD125
:100C900010E02069B0B1C6F80090FFF7C3FD074629
:100CA00005E000BFFFF7BEFDC01B0228C4D82868BE
:100CB0008007F7D52868616920F0F80040EAC10094
:100CC00028600FE0C6F80080FFF7ACFD074606E09D
:100CD000E9E000BFFFF7A6FDC01B022823D8286863
:100CE0008007F7D4207800072CD57248A169D9B1C4
:100CF000C0F80090FFF796FD074604E0FFF792FD6D
:100D0000C01B02280FD8686A8007F7D56A484FF4DD
:100D1000FA510068B0FBF1F0009000BF0098411E4E
:100D20000091FAD20EE080E0C0F80080FFF77AFD73
:100D3000074604E0FFF776FDC01B022875D8686AF5
:100D40008007F7D42078400760D5E8690027C00005
:100D500008D4E86940F08050E861E869012700F0B4
:100D60008050009055480168C90513D40168834636
:100D700041F480710160FFF755FD824606E000BF37
:100D8000FFF750FDA0EB0A0064284ED8DBF8000006
:100D9000C005F5D5E06801280AD008B1052813D0B0
:100DA000286A20F001002862286A20F0040002E08E
:100DB000286A40F001002862E06841F2883B98B15F
:100DC000FFF730FD82460BE0286A40F004002862FD
:100DD000EEE700BFFFF726FDA0EB0A0159455AD800
:100DE000286A8007F6D50CE0FFF71CFD824605E077
:100DF000FFF718FDA0EB0A0159454CD8286A800777
:100E0000F6D41FB1E86920F08050E861E06988B34A
:100E10006968C1F38101022945D00228C6F86080C3
:100E200004D0FFF7FFFC044638E034E0FFF7FAFC9B
:100E3000074604E0FFF7F6FCC01B02282BD8286801
:100E40008001F7D4206AB0F5803F05D16868A168B9
:100E500020F4003008436860D4E908010843696859
:100E600021F4741108436860C6F86090FFF7DAFC5B
:100E7000044606E015E000BFFFF7D4FC001B022883
:100E800009D828688001F7D50BE000BFFFF7CAFC3E
:100E9000001B022802D90320BDE8F88F28688001D2
:100EA000F4D40020F8E70120F6E70000001002402B
:100EB00000004242800442422C01002000700040A9
:100EC0004FF0E0210428086903D020F004000861F5
:100ED000704740F00400FAE7704710B5401EB0F1CB
:100EE000807F01D3012010BD4FF0E02460610F210D
:100EF000601700F0B3F90020A061072020610020F6
:100F000010BD10B5FFF7E8FF10BD704770B502685F
:100F100004461068D168536910F00F0F50D003F0E9
:100F2000010501F4907635435DD0C20705D0CA05AE
:100F300003D5E26B42F00102E263420705D5DA070E
:100F400003D0E26B42F00202E263820705D5DA07C2
:100F500003D0E26B42F00402E263020705D5DA0730
:100F600003D0E26B42F00802E263E26B002A33D066
:100F7000800604D5880602D5204600F0F7F92068DF
:100F80004069E16BC0F38010090700D428B3204604
:100F900000F0DEF92068416949061AD5416921F05F
:100FA00040014161606BA0B11B494163606BFFF779
:100FB000AFFA002810D0606B416BBDE87040084765
:100FC000830610D58B060ED52046BDE8704000F094
:100FD000CDB92046FFF799FF70BD2046FFF795FF7A
:100FE0000020E06370BD030606D50B0604D520463D
:100FF000BDE8704000F0BEBA4006F3D54806F1D512
:10100000D168204621F04001D160202184F83910B8
:1010100000F0C8F870BD00004113000870B504006E
:1010200004D094F83900002510B106E0012070BD0D
:1010300084F83850204600F023F8242084F8390042
:101040002068C16821F40051C160204600F0DAF93F
:101050002068016921F4904101612068416921F013
:101060002A0141612068C16841F40051C160E56313
:10107000202084F8390084F83A00002070BD000078
:1010800010B50068154986B0884225D11448816999
:1010900041F4804181618069124C00F480400490E9
:1010A0004FF40070009002200190032003906946E5
:1010B0002046FFF7CFFA00212015CDE9000102916B
:1010C00069462046FFF7C6FA002211462520FFF7A1
:1010D0003DFC2520FFF72EFC06B010BD0038014076
:1010E000001002400008014070472DE9F843044613
:1010F00090F839001F4616460D46202850D1A5B15C
:101100009EB194F8380001284AD0012084F83800B4
:101110004FF00008C4F83C80212084F83900FFF724
:1011200081FBA6848146E68426E00120BDE8F883A1
:10113000E08C401EE084A0684B46B0F5805F4FF025
:1011400000024FF080012046009703D000F043FAE0
:10115000E8B90DE000F03FFAC8B928882168C0F36B
:1011600008004860206908B16D1C05E0AD1C03E073
:10117000216815F8010B4860E08C0028D8D14B4657
:10118000002240212046009700F025FA08B10320F4
:10119000CCE7202084F8390084F838800020C5E7A7
:1011A0000220C3E77047FEE7F0B5284885B08169A3
:1011B00041F020018161816901F020010491816980
:1011C00041F008018161816901F0080104918169A0
:1011D00041F00401816180691D4F00F0040004901A
:1011E00000224FF4C0513846FFF717FB022519487B
:1011F00000240095CDE9010469463846FFF72AFA34
:101200006802CDE90004694638460294FFF722FAE5
:10121000A8020126CDE9000669463846CDE9024517
:10122000FFF718FAE802CDE900060320CDE90240F5
:1012300069463846FFF70EFA002211460720FFF7ED
:1012400085FB0720FFF776FB05B0F0BD00100240DC
:10125000000C014000002110FEE770470907090E4D
:10126000002806DA00F00F0000F1E02080F8141DDD
:10127000704700F1E02080F8001470477047704715
:1012800010B5FFF7D5FABDE81040FFF73ABE30B50C
:101290008FB001210804CDE900100024029402253A
:1012A0000491CDE907504FF4E01009906846FFF72C
:1012B00085FC00B1FEE70F20CDE90A054FF4806000
:1012C000CDE90C4002210AA80E94FFF771FB00B192
:1012D000FEE7FFF717FC4FF47A71B0FBF1F0FFF770
:1012E000FCFD0420FFF7ECFD00221146501EFFF725
:1012F0002DFB0FB030BD00000D48016841F0010129
:10130000016041680B4A1140416001680A4A11407E
:101310000160016821F480210160416821F4FE012F
:1013200041604FF41F0181600449C00308607047A9
:10133000001002400000FFF8FFFFF6FE08ED00E09D
:1013400010B5406A0021C185C184FFF7DEFD10BDE4
:101350000168CA6822F49072CA6001684A6922F082
:1013600001024A61202180F83A10704710B590F8C8
:101370003A10222901D0022010BD8168B1F5805FAA
:1013800011D00169002901681FD0496801F07F036D
:10139000816A4A1C82620B70C18D491E0904090CC6
:1013A000C18518D02BE00269816A002A0268526860
:1013B00005D0D2B20A80816A491C8162ECE7C2F38F
:1013C00008020A80816A891CF7E74A68816A4B1C17
:1013D00083620A70E0E70168CA6822F02002CA60EE
:1013E0000168CA6822F48072CA6001684A6922F002
:1013F00001024A61202180F83A10FFF775FE0020B3
:1014000010BD00002DE9F041044600680169E26862
:1014100021F44051114301612169A06808436169C9
:1014200008432168CA6841F20C639A430243CA60C8
:1014300020684169A26921F44071114341614C491E
:1014400020686425322688423CD1FFF771FB00EB0F
:10145000C00101EB001061688900B0FBF1F7FFF7F4
:1014600067FB00EBC00101EB00106168B04689002A
:10147000B0FBF1F0B0FBF5F06FF01801484307EB5B
:10148000800106EB0110B0FBF5F000F0F006FFF76D
:101490004FFB00EBC00101EB001061688900B0FB5D
:1014A000F1F0B0FBF5F006EB0016FFF741FB00EBA7
:1014B000C00101EB001061688900B0FBF1F7FFF794
:1014C00037FB3BE0FFF724FB00EBC00101EB001012
:1014D00061688900B0FBF1F7FFF71AFB00EBC00170
:1014E00001EB00106168B0468900B0FBF1F0B0FB81
:1014F000F5F06FF01801484307EB800106EB01108F
:10150000B0FBF5F000F0F006FFF702FB00EBC001C6
:1015100001EB001061688900B0FBF1F0B0FBF5F061
:1015200006EB0016FFF7F4FA00EBC00101EB001028
:1015300061688900B0FBF1F7FFF7EAFA00EBC00140
:1015400001EB001061688900B0FBF1F0B0FBF5F031
:101550006FF01801484307EB800108EB0110B0FB66
:10156000F5F0216800F00F0030448860BDE8F0819C
:101570000038014090F83910212901D0022070472D
:101580008168B1F5805F016A0BD04A1C0262026873
:1015900009785160C18C491E0904090CC1840ED020
:1015A00017E009880268C1F3080151600169002948
:1015B000016A02D0491C0162ECE7891CFBE7016863
:1015C000CA6822F08002CA600068C16841F0400128
:1015D000C160002070472DE9F041984617460E463D
:1015E0000446069D1DE0681C1BD02DB1FFF71AF9BB
:1015F000A0EB0800A84214D92068C16821F4D0717A
:10160000C1602068416921F001014161202084F816
:10161000390084F83A00002084F838000320BDE83F
:10162000F0812068006836EA000004D00020B8424B
:10163000D9D00020F3E70120F9E700000148FFF7C7
:1016400065BC000030010020FEE700001CB5034629
:101650000020144600290AD0491ECDE90031044A71
:101660006946204600F015F8009A002111701CBD53
:10167000B516000802E008C8121F08C1002AFAD1F6
:1016800070477047002001E001C1121F002AFBD102
:1016900070472DE9F04116460F460446002503E049
:1016A0003946B047641C6D1C20780028F8D12846C4
:1016B000BDE8F0814A68002A06D00A68531C0B6016
:1016C00010704868401E486070470000FFF7B8F887
:1016D000FFF7DDFDFFF768FD8648854900250160BD
:1016E0004FF4E131C0E901150C21C560C0E9045196
:1016F0008561C561FFF792FC00B1FEE7FEF7E2FEEF
:10170000FEF7C8FDFEF788FDFF212720FEF760FEEB
:10171000FEF7FEFD784E794C4FF001084FF4805AE9
:101720004FF47A79F714A0682560401CC4E9015091
:101730007048E5604030FEF753FD01287BD1282337
:101740000E226FA16B48FFF7D0FC6A4905232022C7
:1017500040316848FFF7C9FC012251463046FFF787
:101760005CF864486AA14030FEF7EEFC30B1614895
:1017700069A14030FEF7E8FC00286FD100F022F9A3
:101780005C4820214030FEF7D4FC05230F2264A1E1
:101790005848FFF7AAFC57490523202260315548D5
:1017A000FFF7A3FCFEF7CCFD52486030FEF78AFD40
:1017B00020684FF0050328B10E225DA14D48FFF7C8
:1017C00094FC66E024225EA14A48FFF78EFCFEF7F7
:1017D0009FFD4846FEF7E8FE5BE0E068401CE060E5
:1017E00044484030FEF7FCFC01281ED14149052346
:1017F000202240313F48FFF778FC40493D481431F2
:101800004030FEF7A1FCC4F8008040B305230C2251
:1018100054A13848FFF769FCFF212720FEF7D8FDC7
:10182000344820214030FEF784FCE068322830DD67
:101830000523232200E03FE04DA12E48C4F800809C
:10184000FFF753FC39463046FEF7E2FF08B339464E
:101850003046FEF7DDFF01281BD115E01CE0FFE755
:1018600005230C224BA12348A560FFF73EFCFEF7A1
:1018700067FD22483430FEF725FD05230A2248A1E2
:101880001C48FFF732FCCBE7002239463046FEF712
:10189000C4FF20680028A0D0164820214030FEF761
:1018A00048FCFF212720FEF793FDFEF731FD0022C3
:1018B00051463046FEF7B1FFA06848457FF433AF8C
:1018C00039463046FEF7A4FF50B139463046FEF7A0
:1018D0009FFF012804D1002239463046FEF79DFFC4
:1018E0000523162231A10348A560FFF7FEFB1AE786
:1018F0000038014030010020000C01400C000020A5
:101900000D0A6368756F69206E68616E0D0A0000CC
:101910004F4E5F31620000004F46465F316200006B
:1019200064616E672074727579656E0D0A0000003F
:101930000D0A4B455420544855430D0A0000000041
:101940000D0A6B69656D2074726120636F206E688B
:10195000616E2064756F63206F6B206B686F6E67BC
:101960000D0A00006368756F69206C6F690D0A00CD
:101970006865742067696F2063686F203D3E206B47
:10198000686F6E67207468616E6820636F6E670DA4
:101990000A00000074727579656E206F6B0D0A0085
:1019A0004B455420544855430D0A000052455345B9
:1019B00054204C41492054484945542042490D0A7D
:1019C0000000000070B5494C206988B105231A2237
:1019D00047A14E48FFF789FB4C484DA220216030BB
:1019E000FFF734FE0120206040F2E930A06070BDB6
:1019F000464849A14030FEF7A7FB4FF40066484C2B
:101A0000751028B3414847A14030FEF79DFB0028E0
:101A1000EDD129462046FEF7FBFE00284ED0294690
:101A20002046FEF7F5FE0128E1D1304905232022AA
:101A3000D4313648FFF759FB002231462046FEF7E5
:101A4000ECFE29462046FEF7E3FE012845D03CE0A7
:101A500029462046FEF7DCFE012805D0294620460F
:101A6000FEF7D6FE40B11EE0204905232022543166
:101A70002648FFF73AFB10E01C4905232022943149
:101A80002248FFF732FB012231462046FEF7C5FE11
:101A900029462046FEF7BCFE38B11FA21B48202174
:101AA0006030FFF7D3FD1CA210E01049052320226F
:101AB000B4311648FFF719FB1CA2EFE70B490523C9
:101AC000202274311148FFF710FB16A2BDE87040C8
:101AD0000E4820216030FFF7B9BD044905232022BC
:101AE000F4310A48FFF701FB16A2EFE70C000020D3
:101AF0000D0A43686520646F2064696575206B6812
:101B000069656E207461790D0A00000030010020C3
:101B1000444B2054415900004F4E5F316200000099
:101B2000000C01404F46465F316200004B686F6E0B
:101B300067206261742064756F6320626F6D5F312E
:101B4000620000004B686F6E6720746174206475DA
:101B50006F6320626F6D5F31620000000000000063
:101B6000000000000102030406070809000000004D
:101B700001020304941B0008000000203001000053
:101B800088010008E01B00083001002080040000EC
:101B9000841600081A11013A03050116051C6F6B23
:101BA0000D0A031E6F6B5A2001F8084261742073FE
:101BB000616E4D69200A1D54201940091389A960DE
:101BC000880B6B686F6E672064756F632B99600973
:101BD0001B402980091240320182100400A24A04ED
:04000005080000ED02
:00000001FF
